{
  "contractName": "TasksContract",
  "abi": [
    {
      "inputs": [],
      "stateMutability": "nonpayable",
      "type": "constructor"
    },
    {
      "anonymous": false,
      "inputs": [
        {
          "indexed": false,
          "internalType": "uint256",
          "name": "id",
          "type": "uint256"
        },
        {
          "indexed": false,
          "internalType": "string",
          "name": "title",
          "type": "string"
        },
        {
          "indexed": false,
          "internalType": "string",
          "name": "description",
          "type": "string"
        },
        {
          "indexed": false,
          "internalType": "bool",
          "name": "done",
          "type": "bool"
        },
        {
          "indexed": false,
          "internalType": "uint256",
          "name": "createdAt",
          "type": "uint256"
        }
      ],
      "name": "TaskCreated",
      "type": "event"
    },
    {
      "anonymous": false,
      "inputs": [
        {
          "indexed": false,
          "internalType": "uint256",
          "name": "id",
          "type": "uint256"
        },
        {
          "indexed": false,
          "internalType": "bool",
          "name": "done",
          "type": "bool"
        }
      ],
      "name": "TaskToggleDone",
      "type": "event"
    },
    {
      "inputs": [],
      "name": "taskCounter",
      "outputs": [
        {
          "internalType": "uint256",
          "name": "",
          "type": "uint256"
        }
      ],
      "stateMutability": "view",
      "type": "function",
      "constant": true
    },
    {
      "inputs": [
        {
          "internalType": "uint256",
          "name": "id",
          "type": "uint256"
        }
      ],
      "name": "tasks",
      "outputs": [
        {
          "internalType": "uint256",
          "name": "id",
          "type": "uint256"
        },
        {
          "internalType": "string",
          "name": "title",
          "type": "string"
        },
        {
          "internalType": "string",
          "name": "description",
          "type": "string"
        },
        {
          "internalType": "bool",
          "name": "done",
          "type": "bool"
        },
        {
          "internalType": "uint256",
          "name": "createdAt",
          "type": "uint256"
        }
      ],
      "stateMutability": "view",
      "type": "function",
      "constant": true
    },
    {
      "inputs": [
        {
          "internalType": "string",
          "name": "_title",
          "type": "string"
        },
        {
          "internalType": "string",
          "name": "_description",
          "type": "string"
        }
      ],
      "name": "createTask",
      "outputs": [],
      "stateMutability": "nonpayable",
      "type": "function"
    },
    {
      "inputs": [
        {
          "internalType": "uint256",
          "name": "_id",
          "type": "uint256"
        }
      ],
      "name": "toggleDone",
      "outputs": [],
      "stateMutability": "nonpayable",
      "type": "function"
    }
  ],
  "bytecode": "0x6080604052600080553480156200001557600080fd5b50620000926040518060400160405280600c81526020017f4578616d706c65207461736b00000000000000000000000000000000000000008152506040518060400160405280601081526020017f476f20746f20746865206d61726b6574000000000000000000000000000000008152506200009860201b60201c565b62000732565b600080815480929190620000ac9062000254565b91905055506040518060a00160405280600054815260200183815260200182815260200160001515815260200142815250600160008054815260200190815260200160002060008201518160000155602082015181600101908162000112919062000511565b5060408201518160020190816200012a919062000511565b5060608201518160030160006101000a81548160ff021916908315150217905550608082015181600401559050507f6549102bed7d1bb5ec529ee14e2ca60ffc1f47f66d4cc6ca713220613cc64c2560016000805481526020019081526020016000206000015460016000805481526020019081526020016000206001016001600080548152602001908152602001600020600201600160008054815260200190815260200160002060030160009054906101000a900460ff166001600080548152602001908152602001600020600401546040516200020f959493929190620006c7565b60405180910390a15050565b7f4e487b7100000000000000000000000000000000000000000000000000000000600052601160045260246000fd5b6000819050919050565b600062000261826200024a565b91507fffffffffffffffffffffffffffffffffffffffffffffffffffffffffffffffff82036200029657620002956200021b565b5b600182019050919050565b600081519050919050565b7f4e487b7100000000000000000000000000000000000000000000000000000000600052604160045260246000fd5b7f4e487b7100000000000000000000000000000000000000000000000000000000600052602260045260246000fd5b600060028204905060018216806200032357607f821691505b602082108103620003395762000338620002db565b5b50919050565b60008190508160005260206000209050919050565b60006020601f8301049050919050565b600082821b905092915050565b600060088302620003a37fffffffffffffffffffffffffffffffffffffffffffffffffffffffffffffffff8262000364565b620003af868362000364565b95508019841693508086168417925050509392505050565b6000819050919050565b6000620003f2620003ec620003e6846200024a565b620003c7565b6200024a565b9050919050565b6000819050919050565b6200040e83620003d1565b620004266200041d82620003f9565b84845462000371565b825550505050565b600090565b6200043d6200042e565b6200044a81848462000403565b505050565b5b8181101562000472576200046660008262000433565b60018101905062000450565b5050565b601f821115620004c1576200048b816200033f565b620004968462000354565b81016020851015620004a6578190505b620004be620004b58562000354565b8301826200044f565b50505b505050565b600082821c905092915050565b6000620004e660001984600802620004c6565b1980831691505092915050565b6000620005018383620004d3565b9150826002028217905092915050565b6200051c82620002a1565b67ffffffffffffffff811115620005385762000537620002ac565b5b6200054482546200030a565b6200055182828562000476565b600060209050601f83116001811462000589576000841562000574578287015190505b620005808582620004f3565b865550620005f0565b601f19841662000599866200033f565b60005b82811015620005c3578489015182556001820191506020850194506020810190506200059c565b86831015620005e35784890151620005df601f891682620004d3565b8355505b6001600288020188555050505b505050505050565b62000603816200024a565b82525050565b600082825260208201905092915050565b6000815462000629816200030a565b62000635818662000609565b945060018216600081146200065357600181146200066a57620006a1565b60ff198316865281151560200286019350620006a1565b62000675856200033f565b60005b83811015620006995781548189015260018201915060208101905062000678565b808801955050505b50505092915050565b60008115159050919050565b620006c181620006aa565b82525050565b600060a082019050620006de6000830188620005f8565b8181036020830152620006f281876200061a565b905081810360408301526200070881866200061a565b9050620007196060830185620006b6565b620007286080830184620005f8565b9695505050505050565b610de880620007426000396000f3fe608060405234801561001057600080fd5b506004361061004c5760003560e01c8063292a458514610051578063586717301461006d5780638d9776721461008b578063d81ef739146100bf575b600080fd5b61006b6004803603810190610066919061074f565b6100db565b005b610075610256565b60405161008291906107e0565b60405180910390f35b6100a560048036038101906100a09190610827565b61025c565b6040516100b69594939291906108ee565b60405180910390f35b6100d960048036038101906100d49190610827565b6103af565b005b6000808154809291906100ed9061097e565b91905055506040518060a0016040528060005481526020018381526020018281526020016000151581526020014281525060016000805481526020019081526020016000206000820151816000015560208201518160010190816101519190610bd2565b5060408201518160020190816101679190610bd2565b5060608201518160030160006101000a81548160ff021916908315150217905550608082015181600401559050507f6549102bed7d1bb5ec529ee14e2ca60ffc1f47f66d4cc6ca713220613cc64c2560016000805481526020019081526020016000206000015460016000805481526020019081526020016000206001016001600080548152602001908152602001600020600201600160008054815260200190815260200160002060030160009054906101000a900460ff1660016000805481526020019081526020016000206004015460405161024a959493929190610d28565b60405180910390a15050565b60005481565b6001602052806000526040600020600091509050806000015490806001018054610285906109f5565b80601f01602080910402602001604051908101604052809291908181526020018280546102b1906109f5565b80156102fe5780601f106102d3576101008083540402835291602001916102fe565b820191906000526020600020905b8154815290600101906020018083116102e157829003601f168201915b505050505090806002018054610313906109f5565b80601f016020809104026020016040519081016040528092919081815260200182805461033f906109f5565b801561038c5780601f106103615761010080835404028352916020019161038c565b820191906000526020600020905b81548152906001019060200180831161036f57829003601f168201915b5050505050908060030160009054906101000a900460ff16908060040154905085565b6000600160008381526020019081526020016000206040518060a0016040529081600082015481526020016001820180546103e9906109f5565b80601f0160208091040260200160405190810160405280929190818152602001828054610415906109f5565b80156104625780601f1061043757610100808354040283529160200191610462565b820191906000526020600020905b81548152906001019060200180831161044557829003601f168201915b5050505050815260200160028201805461047b906109f5565b80601f01602080910402602001604051908101604052809291908181526020018280546104a7906109f5565b80156104f45780601f106104c9576101008083540402835291602001916104f4565b820191906000526020600020905b8154815290600101906020018083116104d757829003601f168201915b505050505081526020016003820160009054906101000a900460ff161515151581526020016004820154815250509050806060015115816060019015159081151581525050806001600084815260200190815260200160002060008201518160000155602082015181600101908161056c9190610bd2565b5060408201518160020190816105829190610bd2565b5060608201518160030160006101000a81548160ff021916908315150217905550608082015181600401559050507f389dee00d487dd41dd5bf0f43eeaa5b663b3af022d52368df89d388150295f45816000015182606001516040516105e9929190610d89565b60405180910390a15050565b6000604051905090565b600080fd5b600080fd5b600080fd5b600080fd5b6000601f19601f8301169050919050565b7f4e487b7100000000000000000000000000000000000000000000000000000000600052604160045260246000fd5b61065c82610613565b810181811067ffffffffffffffff8211171561067b5761067a610624565b5b80604052505050565b600061068e6105f5565b905061069a8282610653565b919050565b600067ffffffffffffffff8211156106ba576106b9610624565b5b6106c382610613565b9050602081019050919050565b82818337600083830152505050565b60006106f26106ed8461069f565b610684565b90508281526020810184848401111561070e5761070d61060e565b5b6107198482856106d0565b509392505050565b600082601f83011261073657610735610609565b5b81356107468482602086016106df565b91505092915050565b60008060408385031215610766576107656105ff565b5b600083013567ffffffffffffffff81111561078457610783610604565b5b61079085828601610721565b925050602083013567ffffffffffffffff8111156107b1576107b0610604565b5b6107bd85828601610721565b9150509250929050565b6000819050919050565b6107da816107c7565b82525050565b60006020820190506107f560008301846107d1565b92915050565b610804816107c7565b811461080f57600080fd5b50565b600081359050610821816107fb565b92915050565b60006020828403121561083d5761083c6105ff565b5b600061084b84828501610812565b91505092915050565b600081519050919050565b600082825260208201905092915050565b60005b8381101561088e578082015181840152602081019050610873565b60008484015250505050565b60006108a582610854565b6108af818561085f565b93506108bf818560208601610870565b6108c881610613565b840191505092915050565b60008115159050919050565b6108e8816108d3565b82525050565b600060a08201905061090360008301886107d1565b8181036020830152610915818761089a565b90508181036040830152610929818661089a565b905061093860608301856108df565b61094560808301846107d1565b9695505050505050565b7f4e487b7100000000000000000000000000000000000000000000000000000000600052601160045260246000fd5b6000610989826107c7565b91507fffffffffffffffffffffffffffffffffffffffffffffffffffffffffffffffff82036109bb576109ba61094f565b5b600182019050919050565b7f4e487b7100000000000000000000000000000000000000000000000000000000600052602260045260246000fd5b60006002820490506001821680610a0d57607f821691505b602082108103610a2057610a1f6109c6565b5b50919050565b60008190508160005260206000209050919050565b60006020601f8301049050919050565b600082821b905092915050565b600060088302610a887fffffffffffffffffffffffffffffffffffffffffffffffffffffffffffffffff82610a4b565b610a928683610a4b565b95508019841693508086168417925050509392505050565b6000819050919050565b6000610acf610aca610ac5846107c7565b610aaa565b6107c7565b9050919050565b6000819050919050565b610ae983610ab4565b610afd610af582610ad6565b848454610a58565b825550505050565b600090565b610b12610b05565b610b1d818484610ae0565b505050565b5b81811015610b4157610b36600082610b0a565b600181019050610b23565b5050565b601f821115610b8657610b5781610a26565b610b6084610a3b565b81016020851015610b6f578190505b610b83610b7b85610a3b565b830182610b22565b50505b505050565b600082821c905092915050565b6000610ba960001984600802610b8b565b1980831691505092915050565b6000610bc28383610b98565b9150826002028217905092915050565b610bdb82610854565b67ffffffffffffffff811115610bf457610bf3610624565b5b610bfe82546109f5565b610c09828285610b45565b600060209050601f831160018114610c3c5760008415610c2a578287015190505b610c348582610bb6565b865550610c9c565b601f198416610c4a86610a26565b60005b82811015610c7257848901518255600182019150602085019450602081019050610c4d565b86831015610c8f5784890151610c8b601f891682610b98565b8355505b6001600288020188555050505b505050505050565b60008154610cb1816109f5565b610cbb818661085f565b94506001821660008114610cd65760018114610cec57610d1f565b60ff198316865281151560200286019350610d1f565b610cf585610a26565b60005b83811015610d1757815481890152600182019150602081019050610cf8565b808801955050505b50505092915050565b600060a082019050610d3d60008301886107d1565b8181036020830152610d4f8187610ca4565b90508181036040830152610d638186610ca4565b9050610d7260608301856108df565b610d7f60808301846107d1565b9695505050505050565b6000604082019050610d9e60008301856107d1565b610dab60208301846108df565b939250505056fea264697066735822122080e40df3ec16ac3e8c9f573951ee5be3d57d62b7751952be07007286aee3576464736f6c63430008130033",
  "immutableReferences": {},
  "source": "// SPDX-License-Identifier: MIT \r\npragma solidity ^0.8.6;\r\n\r\ncontract TasksContract {\r\n    \r\n    uint256 public taskCounter = 0;\r\n\r\n    constructor() {\r\n        createTask(\"Example task\", \"Go to the market\");\r\n    }\r\n\r\n    // events\r\n    event TaskCreated(\r\n        uint256 id,\r\n        string title,\r\n        string description,\r\n        bool done,\r\n        uint256 createdAt\r\n    );\r\n\r\n    event TaskToggleDone(\r\n        uint256 id,\r\n        bool done\r\n    );\r\n\r\n    // structs\r\n    struct Task {\r\n        uint256 id;\r\n        string title;\r\n        string description;\r\n        bool done;\r\n        uint256 createdAt;\r\n    }\r\n\r\n\r\n    // functions\r\n    mapping (uint256 id => Task) public tasks;\r\n\r\n    function createTask(string memory _title, string memory _description) public {\r\n        taskCounter++;\r\n        tasks[taskCounter] = Task(taskCounter, _title, _description, false, block.timestamp);\r\n\r\n        emit TaskCreated(\r\n            tasks[taskCounter].id, \r\n            tasks[taskCounter].title, \r\n            tasks[taskCounter].description, \r\n            tasks[taskCounter].done, \r\n            tasks[taskCounter].createdAt\r\n        );\r\n    }\r\n\r\n    function toggleDone(uint _id) public {\r\n        Task memory _task = tasks[_id];\r\n        _task.done = !_task.done;\r\n        tasks[_id] = _task;\r\n\r\n        emit TaskToggleDone(_task.id, _task.done);\r\n    }\r\n}",
  "sourcePath": "C:\\Users\\nlogosettis\\Documents\\GitHub\\solidity\\logo-contract\\contracts\\tasksContract.sol",
  "compiler": {
    "name": "solc",
    "version": "0.8.19+commit.7dd6d404.Emscripten.clang"
  },
  "schemaVersion": "3.4.13",
  "updatedAt": "2023-05-22T17:47:03.592Z",
  "networkType": "ethereum",
  "devdoc": {
    "kind": "dev",
    "methods": {},
    "version": 1
  },
  "userdoc": {
    "kind": "user",
    "methods": {},
    "version": 1
  }
}