{
  "contractName": "TasksContract",
  "abi": [
    {
      "inputs": [],
      "stateMutability": "nonpayable",
      "type": "constructor"
    },
    {
      "anonymous": false,
      "inputs": [
        {
          "indexed": false,
          "internalType": "uint256",
          "name": "id",
          "type": "uint256"
        },
        {
          "indexed": false,
          "internalType": "string",
          "name": "title",
          "type": "string"
        },
        {
          "indexed": false,
          "internalType": "string",
          "name": "description",
          "type": "string"
        },
        {
          "indexed": false,
          "internalType": "bool",
          "name": "done",
          "type": "bool"
        },
        {
          "indexed": false,
          "internalType": "uint256",
          "name": "createdAt",
          "type": "uint256"
        }
      ],
      "name": "TaskCreated",
      "type": "event"
    },
    {
      "anonymous": false,
      "inputs": [
        {
          "indexed": false,
          "internalType": "uint256",
          "name": "id",
          "type": "uint256"
        },
        {
          "indexed": false,
          "internalType": "bool",
          "name": "_deleted",
          "type": "bool"
        }
      ],
      "name": "TaskDeleted",
      "type": "event"
    },
    {
      "anonymous": false,
      "inputs": [
        {
          "indexed": false,
          "internalType": "uint256",
          "name": "id",
          "type": "uint256"
        },
        {
          "indexed": false,
          "internalType": "bool",
          "name": "done",
          "type": "bool"
        }
      ],
      "name": "TaskToggleDone",
      "type": "event"
    },
    {
      "inputs": [],
      "name": "taskCounter",
      "outputs": [
        {
          "internalType": "uint256",
          "name": "",
          "type": "uint256"
        }
      ],
      "stateMutability": "view",
      "type": "function",
      "constant": true
    },
    {
      "inputs": [
        {
          "internalType": "uint256",
          "name": "id",
          "type": "uint256"
        }
      ],
      "name": "tasks",
      "outputs": [
        {
          "internalType": "uint256",
          "name": "id",
          "type": "uint256"
        },
        {
          "internalType": "string",
          "name": "title",
          "type": "string"
        },
        {
          "internalType": "string",
          "name": "description",
          "type": "string"
        },
        {
          "internalType": "bool",
          "name": "done",
          "type": "bool"
        },
        {
          "internalType": "bool",
          "name": "_deleted",
          "type": "bool"
        },
        {
          "internalType": "uint256",
          "name": "createdAt",
          "type": "uint256"
        }
      ],
      "stateMutability": "view",
      "type": "function",
      "constant": true
    },
    {
      "inputs": [
        {
          "internalType": "string",
          "name": "_title",
          "type": "string"
        },
        {
          "internalType": "string",
          "name": "_description",
          "type": "string"
        }
      ],
      "name": "createTask",
      "outputs": [],
      "stateMutability": "nonpayable",
      "type": "function"
    },
    {
      "inputs": [
        {
          "internalType": "uint256",
          "name": "_id",
          "type": "uint256"
        }
      ],
      "name": "toggleDone",
      "outputs": [],
      "stateMutability": "nonpayable",
      "type": "function"
    },
    {
      "inputs": [
        {
          "internalType": "uint256",
          "name": "_id",
          "type": "uint256"
        }
      ],
      "name": "deleteTask",
      "outputs": [],
      "stateMutability": "nonpayable",
      "type": "function"
    }
  ],
  "bytecode": "0x6080604052600080553480156200001557600080fd5b50620000926040518060400160405280600c81526020017f4578616d706c65207461736b00000000000000000000000000000000000000008152506040518060400160405280601081526020017f476f20746f20746865206d61726b6574000000000000000000000000000000008152506200009860201b60201c565b6200075b565b600080815480929190620000ac906200027d565b91905055506040518060c0016040528060005481526020018381526020018281526020016000151581526020016000151581526020014281525060016000805481526020019081526020016000206000820151816000015560208201518160010190816200011b91906200053a565b5060408201518160020190816200013391906200053a565b5060608201518160030160006101000a81548160ff02191690831515021790555060808201518160030160016101000a81548160ff02191690831515021790555060a082015181600401559050507f6549102bed7d1bb5ec529ee14e2ca60ffc1f47f66d4cc6ca713220613cc64c2560016000805481526020019081526020016000206000015460016000805481526020019081526020016000206001016001600080548152602001908152602001600020600201600160008054815260200190815260200160002060030160009054906101000a900460ff1660016000805481526020019081526020016000206004015460405162000238959493929190620006f0565b60405180910390a15050565b7f4e487b7100000000000000000000000000000000000000000000000000000000600052601160045260246000fd5b6000819050919050565b60006200028a8262000273565b91507fffffffffffffffffffffffffffffffffffffffffffffffffffffffffffffffff8203620002bf57620002be62000244565b5b600182019050919050565b600081519050919050565b7f4e487b7100000000000000000000000000000000000000000000000000000000600052604160045260246000fd5b7f4e487b7100000000000000000000000000000000000000000000000000000000600052602260045260246000fd5b600060028204905060018216806200034c57607f821691505b60208210810362000362576200036162000304565b5b50919050565b60008190508160005260206000209050919050565b60006020601f8301049050919050565b600082821b905092915050565b600060088302620003cc7fffffffffffffffffffffffffffffffffffffffffffffffffffffffffffffffff826200038d565b620003d886836200038d565b95508019841693508086168417925050509392505050565b6000819050919050565b60006200041b620004156200040f8462000273565b620003f0565b62000273565b9050919050565b6000819050919050565b6200043783620003fa565b6200044f620004468262000422565b8484546200039a565b825550505050565b600090565b6200046662000457565b620004738184846200042c565b505050565b5b818110156200049b576200048f6000826200045c565b60018101905062000479565b5050565b601f821115620004ea57620004b48162000368565b620004bf846200037d565b81016020851015620004cf578190505b620004e7620004de856200037d565b83018262000478565b50505b505050565b600082821c905092915050565b60006200050f60001984600802620004ef565b1980831691505092915050565b60006200052a8383620004fc565b9150826002028217905092915050565b6200054582620002ca565b67ffffffffffffffff811115620005615762000560620002d5565b5b6200056d825462000333565b6200057a8282856200049f565b600060209050601f831160018114620005b257600084156200059d578287015190505b620005a985826200051c565b86555062000619565b601f198416620005c28662000368565b60005b82811015620005ec57848901518255600182019150602085019450602081019050620005c5565b868310156200060c578489015162000608601f891682620004fc565b8355505b6001600288020188555050505b505050505050565b6200062c8162000273565b82525050565b600082825260208201905092915050565b60008154620006528162000333565b6200065e818662000632565b945060018216600081146200067c57600181146200069357620006ca565b60ff198316865281151560200286019350620006ca565b6200069e8562000368565b60005b83811015620006c257815481890152600182019150602081019050620006a1565b808801955050505b50505092915050565b60008115159050919050565b620006ea81620006d3565b82525050565b600060a08201905062000707600083018862000621565b81810360208301526200071b818762000643565b9050818103604083015262000731818662000643565b9050620007426060830185620006df565b62000751608083018462000621565b9695505050505050565b611112806200076b6000396000f3fe608060405234801561001057600080fd5b50600436106100575760003560e01c8063292a45851461005c578063560f31921461007857806358671730146100945780638d977672146100b2578063d81ef739146100e7575b600080fd5b61007660048036038101906100719190610a6b565b610103565b005b610092600480360381019061008d9190610b19565b6102a7565b005b61009c610524565b6040516100a99190610b55565b60405180910390f35b6100cc60048036038101906100c79190610b19565b61052a565b6040516100de96959493929190610c0a565b60405180910390f35b61010160048036038101906100fc9190610b19565b610690565b005b60008081548092919061011590610ca8565b91905055506040518060c0016040528060005481526020018381526020018281526020016000151581526020016000151581526020014281525060016000805481526020019081526020016000206000820151816000015560208201518160010190816101829190610efc565b5060408201518160020190816101989190610efc565b5060608201518160030160006101000a81548160ff02191690831515021790555060808201518160030160016101000a81548160ff02191690831515021790555060a082015181600401559050507f6549102bed7d1bb5ec529ee14e2ca60ffc1f47f66d4cc6ca713220613cc64c2560016000805481526020019081526020016000206000015460016000805481526020019081526020016000206001016001600080548152602001908152602001600020600201600160008054815260200190815260200160002060030160009054906101000a900460ff1660016000805481526020019081526020016000206004015460405161029b959493929190611052565b60405180910390a15050565b6000600160008381526020019081526020016000206040518060c0016040529081600082015481526020016001820180546102e190610d1f565b80601f016020809104026020016040519081016040528092919081815260200182805461030d90610d1f565b801561035a5780601f1061032f5761010080835404028352916020019161035a565b820191906000526020600020905b81548152906001019060200180831161033d57829003601f168201915b5050505050815260200160028201805461037390610d1f565b80601f016020809104026020016040519081016040528092919081815260200182805461039f90610d1f565b80156103ec5780601f106103c1576101008083540402835291602001916103ec565b820191906000526020600020905b8154815290600101906020018083116103cf57829003601f168201915b505050505081526020016003820160009054906101000a900460ff161515151581526020016003820160019054906101000a900460ff1615151515815260200160048201548152505090506001816080019015159081151581525050806001600084815260200190815260200160002060008201518160000155602082015181600101908161047b9190610efc565b5060408201518160020190816104919190610efc565b5060608201518160030160006101000a81548160ff02191690831515021790555060808201518160030160016101000a81548160ff02191690831515021790555060a082015181600401559050507f572597a6891de3ffc5ddb25adeb4871a3bf451676410ca50eed9524c49bdc0e6816000015182608001516040516105189291906110b3565b60405180910390a15050565b60005481565b600160205280600052604060002060009150905080600001549080600101805461055390610d1f565b80601f016020809104026020016040519081016040528092919081815260200182805461057f90610d1f565b80156105cc5780601f106105a1576101008083540402835291602001916105cc565b820191906000526020600020905b8154815290600101906020018083116105af57829003601f168201915b5050505050908060020180546105e190610d1f565b80601f016020809104026020016040519081016040528092919081815260200182805461060d90610d1f565b801561065a5780601f1061062f5761010080835404028352916020019161065a565b820191906000526020600020905b81548152906001019060200180831161063d57829003601f168201915b5050505050908060030160009054906101000a900460ff16908060030160019054906101000a900460ff16908060040154905086565b6000600160008381526020019081526020016000206040518060c0016040529081600082015481526020016001820180546106ca90610d1f565b80601f01602080910402602001604051908101604052809291908181526020018280546106f690610d1f565b80156107435780601f1061071857610100808354040283529160200191610743565b820191906000526020600020905b81548152906001019060200180831161072657829003601f168201915b5050505050815260200160028201805461075c90610d1f565b80601f016020809104026020016040519081016040528092919081815260200182805461078890610d1f565b80156107d55780601f106107aa576101008083540402835291602001916107d5565b820191906000526020600020905b8154815290600101906020018083116107b857829003601f168201915b505050505081526020016003820160009054906101000a900460ff161515151581526020016003820160019054906101000a900460ff16151515158152602001600482015481525050905080606001511581606001901515908115158152505080600160008481526020019081526020016000206000820151816000015560208201518160010190816108689190610efc565b50604082015181600201908161087e9190610efc565b5060608201518160030160006101000a81548160ff02191690831515021790555060808201518160030160016101000a81548160ff02191690831515021790555060a082015181600401559050507f389dee00d487dd41dd5bf0f43eeaa5b663b3af022d52368df89d388150295f45816000015182606001516040516109059291906110b3565b60405180910390a15050565b6000604051905090565b600080fd5b600080fd5b600080fd5b600080fd5b6000601f19601f8301169050919050565b7f4e487b7100000000000000000000000000000000000000000000000000000000600052604160045260246000fd5b6109788261092f565b810181811067ffffffffffffffff8211171561099757610996610940565b5b80604052505050565b60006109aa610911565b90506109b6828261096f565b919050565b600067ffffffffffffffff8211156109d6576109d5610940565b5b6109df8261092f565b9050602081019050919050565b82818337600083830152505050565b6000610a0e610a09846109bb565b6109a0565b905082815260208101848484011115610a2a57610a2961092a565b5b610a358482856109ec565b509392505050565b600082601f830112610a5257610a51610925565b5b8135610a628482602086016109fb565b91505092915050565b60008060408385031215610a8257610a8161091b565b5b600083013567ffffffffffffffff811115610aa057610a9f610920565b5b610aac85828601610a3d565b925050602083013567ffffffffffffffff811115610acd57610acc610920565b5b610ad985828601610a3d565b9150509250929050565b6000819050919050565b610af681610ae3565b8114610b0157600080fd5b50565b600081359050610b1381610aed565b92915050565b600060208284031215610b2f57610b2e61091b565b5b6000610b3d84828501610b04565b91505092915050565b610b4f81610ae3565b82525050565b6000602082019050610b6a6000830184610b46565b92915050565b600081519050919050565b600082825260208201905092915050565b60005b83811015610baa578082015181840152602081019050610b8f565b60008484015250505050565b6000610bc182610b70565b610bcb8185610b7b565b9350610bdb818560208601610b8c565b610be48161092f565b840191505092915050565b60008115159050919050565b610c0481610bef565b82525050565b600060c082019050610c1f6000830189610b46565b8181036020830152610c318188610bb6565b90508181036040830152610c458187610bb6565b9050610c546060830186610bfb565b610c616080830185610bfb565b610c6e60a0830184610b46565b979650505050505050565b7f4e487b7100000000000000000000000000000000000000000000000000000000600052601160045260246000fd5b6000610cb382610ae3565b91507fffffffffffffffffffffffffffffffffffffffffffffffffffffffffffffffff8203610ce557610ce4610c79565b5b600182019050919050565b7f4e487b7100000000000000000000000000000000000000000000000000000000600052602260045260246000fd5b60006002820490506001821680610d3757607f821691505b602082108103610d4a57610d49610cf0565b5b50919050565b60008190508160005260206000209050919050565b60006020601f8301049050919050565b600082821b905092915050565b600060088302610db27fffffffffffffffffffffffffffffffffffffffffffffffffffffffffffffffff82610d75565b610dbc8683610d75565b95508019841693508086168417925050509392505050565b6000819050919050565b6000610df9610df4610def84610ae3565b610dd4565b610ae3565b9050919050565b6000819050919050565b610e1383610dde565b610e27610e1f82610e00565b848454610d82565b825550505050565b600090565b610e3c610e2f565b610e47818484610e0a565b505050565b5b81811015610e6b57610e60600082610e34565b600181019050610e4d565b5050565b601f821115610eb057610e8181610d50565b610e8a84610d65565b81016020851015610e99578190505b610ead610ea585610d65565b830182610e4c565b50505b505050565b600082821c905092915050565b6000610ed360001984600802610eb5565b1980831691505092915050565b6000610eec8383610ec2565b9150826002028217905092915050565b610f0582610b70565b67ffffffffffffffff811115610f1e57610f1d610940565b5b610f288254610d1f565b610f33828285610e6f565b600060209050601f831160018114610f665760008415610f54578287015190505b610f5e8582610ee0565b865550610fc6565b601f198416610f7486610d50565b60005b82811015610f9c57848901518255600182019150602085019450602081019050610f77565b86831015610fb95784890151610fb5601f891682610ec2565b8355505b6001600288020188555050505b505050505050565b60008154610fdb81610d1f565b610fe58186610b7b565b94506001821660008114611000576001811461101657611049565b60ff198316865281151560200286019350611049565b61101f85610d50565b60005b8381101561104157815481890152600182019150602081019050611022565b808801955050505b50505092915050565b600060a0820190506110676000830188610b46565b81810360208301526110798187610fce565b9050818103604083015261108d8186610fce565b905061109c6060830185610bfb565b6110a96080830184610b46565b9695505050505050565b60006040820190506110c86000830185610b46565b6110d56020830184610bfb565b939250505056fea26469706673582212200cd72d2f380787af3f591d1d3d0498aca525acf98ff5a7ebb139fe949fa863db64736f6c63430008130033",
  "immutableReferences": {},
  "source": "// SPDX-License-Identifier: MIT \r\npragma solidity ^0.8.6;\r\n\r\ncontract TasksContract {\r\n    \r\n    uint256 public taskCounter = 0;\r\n\r\n    constructor() {\r\n        createTask(\"Example task\", \"Go to the market\");\r\n    }\r\n\r\n    // events\r\n    event TaskCreated(\r\n        uint256 id,\r\n        string title,\r\n        string description,\r\n        bool done,\r\n        uint256 createdAt\r\n    );\r\n\r\n    event TaskToggleDone(\r\n        uint256 id,\r\n        bool done\r\n    );\r\n\r\n    event TaskDeleted(\r\n        uint256 id,\r\n        bool _deleted\r\n    );\r\n\r\n    // structs\r\n    struct Task {\r\n        uint256 id;\r\n        string title;\r\n        string description;\r\n        bool done;\r\n        bool _deleted;\r\n        uint256 createdAt;\r\n    }\r\n\r\n\r\n    // functions\r\n    mapping (uint256 id => Task) public tasks;\r\n\r\n    function createTask(string memory _title, string memory _description) public {\r\n        taskCounter++;\r\n        tasks[taskCounter] = Task(taskCounter, _title, _description, false, false, block.timestamp);\r\n\r\n        emit TaskCreated(\r\n            tasks[taskCounter].id, \r\n            tasks[taskCounter].title, \r\n            tasks[taskCounter].description, \r\n            tasks[taskCounter].done, \r\n            tasks[taskCounter].createdAt\r\n        );\r\n    }\r\n\r\n    function toggleDone(uint _id) public {\r\n        Task memory _task = tasks[_id];\r\n        _task.done = !_task.done;\r\n        tasks[_id] = _task;\r\n\r\n        emit TaskToggleDone(_task.id, _task.done);\r\n    }\r\n\r\n    function deleteTask(uint _id) public {\r\n        Task memory _task = tasks[_id];\r\n        _task._deleted = true;\r\n        tasks[_id] = _task;\r\n\r\n        emit TaskDeleted(_task.id, _task._deleted);\r\n    }\r\n}",
  "sourcePath": "C:\\Users\\nlogosettis\\Documents\\GitHub\\solidity\\logo-contract\\contracts\\tasksContract.sol",
  "compiler": {
    "name": "solc",
    "version": "0.8.19+commit.7dd6d404.Emscripten.clang"
  },
  "schemaVersion": "3.4.13",
  "updatedAt": "2023-05-23T18:12:13.356Z",
  "networkType": "ethereum",
  "devdoc": {
    "kind": "dev",
    "methods": {},
    "version": 1
  },
  "userdoc": {
    "kind": "user",
    "methods": {},
    "version": 1
  }
}